:02000000CA2C08
:0E000600F201F101F001F801F30100300800F1
:100014007B15FB1F14280130F300F201F101F001FC
:08002400FA0DF20CFF30080098
:08002C00FA1FF2130030080076
:10003400FB14FB1F2428FF30F300F200F100F00052
:08004400FA0DF20CFF30080078
:0C004C0007308312FD00FD0B292808007E
:10005800A0017208031D41287108F2007008F10020
:10006800F001A0157208031D41287108F200F10182
:10007800A0112016720803194F282008F302031D47
:10008800031C53280310F21B5728F00DF10DF20D35
:10009800F30B472853280130FC0003205A2802306C
:0E00A800FC000A205A280430FC001620080034
:1000B6007C189128FC1862287C19B0285B28A001BE
:1000C6007208031D82287108F2007008F100780892
:1000D600F000F801A0157208031D82287108F200CD
:1000E6007008F100F001A01120167208031D822885
:1000F6007108F200F101A01572080319A42820085E
:10010600F302031D031CA8280310F21B9128F80D07
:10011600F00DF10DF20DF30B8828A8287B1B701C3F
:10012600AC28F81FAC28F00A0319F10A0319F20AE1
:10013600031DAC28F20CF10CF00CF30A0319B028DD
:10014600AC280130FC000320B3280230FC000A2052
:10015600B3280430FC001620B3280830FC001A200F
:04016600000008008D
:10016A007B14FB1FC028F201FA1FFF30F200F100D6
:0A017A00F000FA0DF20CFF3008004F
:1001840083120313FB01FA01F9018030F800F10C2A
:10019400F00C031CD6287408F90775080318750FAA
:1001A400FA070318FB0A0310F01FDE287408FA0785
:1001B40075080318750FFB07FB0CFA0CF90CF80C07
:1001C400031CC9287B08F3007A08F2007908F100BF
:0601D4007808F0000800AD
:1001DA008312031372087606A000F801F901730866
:1001EA007702031C10297708FD007308F7007D08C1
:1001FA00F3007608FD007208F6007D08F200750823
:10020A00FD007108F5007D08F1007408FD00700812
:10021A00F4007D08F0007708031989297208FA00AA
:10022A00F217F61777087302F70003194329083003
:10023A007702031C3929F7007408F9007508F400DD
:10024A007608F500F60108307702031C3929F70011
:10025A007408F9007508F400F50108307702031CE8
:10026A0039297A08F20089297708031943290310E2
:10027A00F60CF50CF40CF90CF70B3C29A01F5029CD
:10028A00F909F409F509F609F90A0319F40A03192F
:10029A00F50A0319F60A7908F80774080318740F9F
:1002AA00F00775080318750FF10776080318760F1B
:1002BA00F207A01B6929031C7929F20CF10CF00C36
:1002CA00F80CF30F7929852903187D29F809F00913
:1002DA00F109F209F80A0319F00A0319F10A0319D4
:1002EA00F20A8030FA0681290130FC005B208B2952
:1002FA000230FC005B208B290430FC002C208B2967
:10030A000830FC001A208B290030FC00000008008D
:10031A0083120313FB017308031D77080319E429E9
:10032A0072087606FA007708F3077E30031CA129C3
:10033A00F3020318E729A429F302031CEA29720825
:10034A00F8007108FC007008FD00F817F617031092
:10035A00F201F101F0011830A0007D1CBE297408D9
:10036A00F00775080318750FF10776080318760F5A
:10037A00F207F20CF10CF00CF80CFC0CFD0C03105B
:10038A00A00BB229F21BCE29F80DF00DF10DF20DDA
:10039A00F3037B1B701CE029F81FE029F00A0319FC
:1003AA00F10A0319F20A031DE029F20CF10CF00C10
:1003BA00F30A0319E729FA1FF2130030EC29013076
:1003CA000320EC2902301A20EC2904300A2000000C
:0203DA00080019
:1003DC00C33083129F05F0309F052109F00070088F
:1003EC009F05F03083169F0483129F173F08F0007F
:1003FC00F00D7010F00D701070089F041F14262063
:10040C009F149F1C0B2A0000072A1F101E08F100C6
:0E041C00F00183161E08F0040030F104080001
:10042A00831203137008F8007108F000F101F20159
:10043A00F301FB01FC019630F300FA017008F100A8
:0C044A007808F000F801F2012C200800F6
:1004560083169C1C302A00002B2A83123D08831623
:100466009B0083123E0883169A009C131C150B08EA
:10047600F0008B1355309D00AA309D009C14F01B94
:0C048600462A8B13472A8B171C11080014
:0C049200831238088A0037088200080036
:10049E00803083123E06F00080307002031D592A10
:1004AE0000303D020318642A3D08003CF0003E086F
:1004BE00031C013EF101F102682A3D08F0003E08DE
:0404CE00F100080031
:0C04D200831203138030F606ED200800B2
:1004DE00FF308312B400FF30B500FF30B600FF309E
:1004EE00C3309F05F0309F052109F00070089F056D
:0E04FE00F03083169F0483129F171F1408000E
:10050C0083161208013EF000F1010318F10A831260
:10051C003D08F400F501C2200630F2007008F4002A
:10052C007108F50072080319A02AF50CF40CF513E8
:10053C00FF3E992A0430F1007408F0007108031989
:10054C00AB2AF00D7010FF3EA52A30307005F30079
:10055C007408F0007508F100F10CF00CF113F10CBB
:10056C00F00CF113700893000F3095057308950487
:02057C00080075
:10057E0083120313FA017308031D7A147708031DFF
:10058E00FA147A0803190B2B033A0319D62A7A1890
:10059E00D32AF61F092B072BF21F072B092B7208E4
:1005AE008039FA00F21376088039F6137A060319A9
:1005BE00E42A7A080319072B092B7708730203190B
:1005CE00EB2A031CFF2A032B760872020319F22A68
:1005DE00031CFF2A032B750871020319F92A031C49
:1005EE00FF2A032B7408700203190B2B0318032B1D
:1005FE00FA080319092B072BFA080319072B092BE5
:10060E000314080003100800031403150800080063
:10061E0083123D08BF00EE2115220A30F400283067
:0E062E00F5002030F6007730F7008D2108002F
:10063C0083120313FB01730803195B2B7208FA0076
:10064C00F2178E30F302F31F5E2BF309F30A083016
:10065C007302031C412BF300F10D7208F100F2013F
:10066C0008307302031C412BF300F10DF1017308E8
:10067C00031D0310492B73080319492B0310F20CAB
:10068C00F10CF30B442B7B1B711C532B031C532BB6
:10069C00F10A0319F20AF21B6A2BFA1F6D2BF209ED
:1006AC00F109F10A0319F20A6D2BF201F1016D2B1C
:1006BC007B14FB1F702BF201FA1F702BFF30F20022
:1006CC00F100FA0DF20C702B0130FC00722B003093
:1006DC00FC00722BFF30FC00FC080319762BB520B4
:0A06EC007108F0007208F100080028
:1006F6008312B30185108512B101B201A601A201D0
:10070600A301A401A501AB01AC010430BD000F2378
:100716007008A7007108A8007208A9007308AA004B
:10072600963033020318762C3108BD008622273016
:10073600FC00F530FD00FD0B9E2BFC0B9E2BBD0136
:100746000F237008AD007108AE007208AF00730881
:10075600B0007008F4007108F5007208F60073081E
:10076600F7002708F0002808F1002908F2002A08F7
:10077600F30069221E237008BD007108BE004F22D7
:100786007008B9007108BA002208F4002308F500C1
:100796002408F6002508F7002708F0002808F100CD
:1007A6002908F2002A08F30069221E237008BD00FA
:1007B6007108BE004F2280303A06F2008030710682
:1007C6007202031DE82B70083902031CEF2B330855
:1007D600003A0319EF2BFB2B2D08A2002E08A300CD
:1007E6002F08A4003008A5003108AB003208AC0081
:1007F6002708F4002808F5002908F6002A08F7005B
:100806002D08F0002E08F1002F08F2003008F30042
:10081600BF22013003180030F00070080319172CAE
:10082600B10A0319B20A742C2D08F4002E08F5003B
:100836002F08F6003008F7002708F0002808F10016
:100846002908F2002A08F300BF22013003180030FD
:10085600F00070080319742C2208F4002308F50030
:100866002408F6002508F7002708F0002808F100FC
:100876002908F2002A08F30069221E237008BD0029
:100886007108BE004F227008B9007108BA002D0821
:10089600F4002E08F5002F08F6003008F7002708A8
:1008A600F0002808F1002908F2002A08F30069225E
:1008B6001E237008BD007108BE004F2280303A0624
:1008C600F200803071067202031D6B2C700839022B
:1008D6000318702C0130A600762C0130B102031CDF
:1008E600B203B30A932B2B08BD0086222608013AD1
:1008F600031D9A2CB301043033020318942C2030C4
:1009060085060230FB004530FC00A930FD00FD0BDA
:100916008A2CFC0B8A2CFB0B8A2C00000000B30AE5
:100926007E2C0230BD003108BE002B229C2C831287
:04093600851408001C
:10093A008312390883169B009C131C141A08F000B2
:02094A000800A3
:0A094C0083129301151295120800A2
:1009560019308316850011309F00073083129900E5
:080966006F22851085120800C4
:10096E0049228A110A128000840AB70A0319B80AAA
:08097E00F003031DB72C080073
:0E09860083160511831212150C30950408001B
:100994000825AB240230B9009D2470088312B100ED
:1009A400B20112109210633083169200A62431080B
:1009B400BD008622C32483128519ED2C0D30FC0062
:1009C400FB30FD00FD0BE42CFC0BE42C00000000CC
:0A09D4008519ED2C7B23DD2CEE2CA1
:100A10002130840013308312F000F430B70004302A
:060A2000B800B724080035
:0209E800403499
:0809EA00003400340034003435
:0209F2000034CF
:0809F40000340034003400342B
:0409FC00003400348F
:080A000000340034003400341E
:040A08000034003482
:020A0C000034B4
:02400E00D40CD0
:00000001FF
